:020000040800F2
:10000000E820002049010008E51C000885190008C7
:1000100000000000000000000000000000000000E0
:10002000000000000000000000000000E71C0008C5
:10003000000000000000000007010008F11C00089B
:100040005B0100085B0100085B0100085B01000820
:100050005B0100085B0100085B0100085B01000810
:100060005B0100085B0100085B0100085B01000800
:100070005B0100085B0100085B0100085B010008F0
:100080005B0100085B010008AD1D00085B01000872
:100090005B0100085B0100085B0100085B010008D0
:1000A0005B0100085B0100085B0100085B010008C0
:1000B0005B0100085B0100085B01000803488546FE
:1000C00000F0DCF80048004789260008E8200020FE
:1000D000084B19680868203080F30988022080F3F3
:1000E0001488BFF36F8F3FBCAE4608BC04BC62B639
:1000F0001847000014000020EFF3108072B670471C
:1001000080F310887047EFF309800E4B1A6820388F
:100110001060F0C044464D4656465F46F0C008B5F4
:1001200072B603F0C7F862B60CBC116808681030EC
:10013000F0C8A046A946B246BB4680F309882038DD
:10014000F0C81847140000200448804704480047BE
:10015000FEE7FEE7FEE7FEE7FEE7FEE79D1D00087F
:10016000BD00000830B50B460146002020220124C6
:1001700009E00D46D5409D4205D31D469540491BDB
:100180002546954040191546521E002DF1DC30BD24
:10019000F0B51FB40646002082B005464024019108
:1001A00000901BE0019922460F46304600F054F8BB
:1001B000049A059B801A994110D31046194622468D
:1001C00000F03AF8361A8F410197224601200021AB
:1001D000009F00F031F838184D4100902046641E11
:1001E0000028DFDC019B00982946324607B0F0BDAD
:1001F00003460B439B0703D009E008C9121F08C040
:10020000042AFAD203E00B780370401C491C521EEA
:10021000F9D27047D2B201E00270401C491EFBD2F5
:1002200070470022F6E710B513460A460446194601
:10023000FFF7F0FF204610BD10B5202A04DB014671
:10024000203A9140002010BD914020239C1A034683
:10025000E3401943904010BD10B5202A04DB084646
:10026000203AD040002110BD0B46D340D04020247E
:10027000A21A91400843194610BD0000064C012502
:10028000064E05E0E36807CC2B430C3C984710343E
:10029000B442F7D3FFF716FF603B0008803B00082D
:1002A000FCB5002301259AE022462C469C402240C2
:1002B0006FD04E68012E05D0022E03D0112E01D032
:1002C000122E16D186680327B4465E00B646B740A4
:1002D0006646BE43B446CF687646B7406646374367
:1002E00087604668A6430C79E406E40F9C403443DB
:1002F0004460C6685F000324BC40A446A6438C68E3
:10030000BC403443C4604C68022C01D0122C14D180
:10031000DC08A40024180194266A5C07B646E60EA1
:100320000F24B44000967646A643B6460C69009E5C
:10033000B44076462643019C266204686646B44370
:100340000E79B607B60FBE40264306604C68E4003F
:1003500044D59E08254CB6003419A446246E9E0749
:10036000F60E0F27B740BC4305273F07B84201D11F
:10037000002710E01E4FB84201D101270BE01D4FAE
:10038000B84201D1022706E01B4FB84202D1032731
:1003900001E023E00527B740274364462766134E54
:1003A000803634684F689443FF0300D514433460AB
:1003B00074684F689443BF0300D5144374600B4CBA
:1003C00026684F689643FF0200D51643266066688C
:1003D0004F689643BF0200D5164366605B1C0A68EF
:1003E0001446DA4000D05FE7FCBD00000018024070
:1003F0000004005000080050000C0050002A01D0FA
:1004000081617047816270470148806870470000D1
:100410000400002070B5024640325378202B1CD1D6
:100420001378012B19D0012313702424547004680D
:1004300025689D432560046825681E03B543256033
:10044000046825680D432560006801681943016050
:10045000202050700020107070BD022070BD70B55B
:10046000024640325378202B1BD11378012B18D031
:10047000012414702423537003681D68A5431D6074
:1004800005682B680F263602B34309021943296019
:100490000068016821430160202050700020107026
:1004A00070BD022070BD000070B5040006D0254666
:1004B000403568780026002802D005E0012070BD94
:1004C0002E70204600F04AF82420687020680168E9
:1004D0004908490001600F216068090688432168C6
:1004E000086121688A680120C00382438A60E1684C
:1004F0000129A16808D0212292021143226891604B
:10050000E168022902D005E00143F7E701212268F2
:10051000C902516021684A680F4B1A434A6021683A
:10052000CA688243CA60616920690843A1690902F7
:1005300008432168C860216AE069084321680860AF
:100540002068016801221143016066642020687000
:100550002663AE70002070BD0080000210B586B02A
:10056000044614216846FFF75CFE12492068884261
:100570001ED1114C616B022001436163616B01402C
:1005800003200591000200901220019001200290AA
:10059000002003900620049069460848FFF780FE7B
:1005A000E16B012040050143E163E16B01400591EE
:1005B00006B010BD0054004000100240000400507E
:1005C0000248816802788918816070470400002021
:1005D00010B50848002401688215114301602046C7
:1005E00000F00AF8002801D0012401E000F040F8F2
:1005F000204610BD0020024000B5014687B0002211
:10060000122000F05FF8122000F050F81348C26B7F
:1006100020210A43C263C06B0840059004A96846C4
:1006200000F016FA00F030FA0D49FFF79BFD0E4975
:100630000C4A0A600D4A401ECA60486000200861EA
:100640008860084600F000FE002802D0012007B0B4
:1006500000BD054800F030FEF9E700000010024040
:1006600040420F0000140040C8030020E7030000D0
:1006700008B50D480168012211430160006810406F
:10068000009009484038C26B01040A43C263C06B42
:100690000022084003210090481F00F013F80320B7
:1006A000400200F033FD08BD40100240002805DB89
:1006B000C106C90E0120884001490860704700004A
:1006C00000E100E010B501F0ADFF10BD10B50F4C1A
:1006D000216803225202914301432160C11FFF3967
:1006E000FA390ED10A480621006848430949FFF744
:1006F00039FD401C02E0002805D0401E6169490513
:10070000F9D4002010BD032010BD0000007000408F
:100710001000002040420F00FEB50446006800278C
:10072000704D714E800355D500200090F06BC000D5
:1007300007D4F16BA8050143F163F16B014001207F
:1007400000906A480168821511430160FFF75CFE62
:10075000019005E0FFF758FE0199401A022825D8BC
:1007600062480068C005F5D5E86903210902084020
:100770000FD0216B81420CD0E86903210902EA699C
:100780008843012109040A43EA61EA698A43EA616C
:10079000E861C0070FD0FFF737FE019008E0FFF7D0
:1007A00033FE0199411A5248814201D9032709E0D9
:1007B000E8698007F3D5E869032109028843216BC2
:1007C0000843E8610098002804D0F16B012000077D
:1007D0008143F1632078C00705D0686961688008AB
:1007E0008000084368612078800705D568690C217E
:1007F0008843A168084368612078C00606D5686907
:10080000032189028843E1680843686120888005E4
:1008100006D56869032189048843A1690843686192
:100820002088400506D56869032109058843E169E8
:10083000084368612078800606D5686903210903AA
:100840008843216908436861208840040ED568699F
:10085000216A80008008084368610121206A8907B5
:10086000884203D1F06889130843F06020680003D0
:1008700005D5686940218843616A0843686120683A
:1008800081021C480BD569698210A36A9143194300
:100890006961A16A914202D1F1680143F160216866
:1008A00049020AD56969E26A814311436961E16AD3
:1008B000814202D1F1680143F160208800050FD523
:1008C00068690321890388436169084368610121DC
:1008D00060698903884203D1F06889000843F060A9
:1008E0003846FEBD4010024000100240007000403B
:1008F0008813000000000001F8B50F46060043D041
:100900004D4D28684007400FB84213D22868C008F0
:10091000C00038432860FFF777FD044605E0FFF785
:1009200073FD011B4548814261D828684007400F8C
:10093000B842F4D13068424C81070DD5400704D548
:10094000A068072109030843A060A0680F210902DD
:100950008843B1680843A0603078C00732D070681F
:1009600001280AD002280BD000280FD0344940318A
:1009700003280ED0C969890704E02168890301E0D2
:1009800021688901002906DB0120F8BD216849059D
:10099000F8E7096AEFE7A168C908C9000143A16047
:1009A000FFF732FD009006E0FFF72EFD0099411A97
:1009B000224881421BD8A068382108407168C900CC
:1009C0008842F1D128684007400FB84217D91A4829
:1009D0000168C908C90039430160FFF715FD0546E4
:1009E00007E0FFF711FD411B1448814201D90320A4
:1009F000F8BD114800684007400FB842F1D1307887
:100A0000400706D5A068072109038843F168084319
:100A1000A06000F04DF8A1683C2289091140094A04
:100A2000515CC906C90EC8400749086007480068FC
:100A3000FFF7E2FDF8BD000000200240881300002F
:100A400000100240F43A00081000002008000020C6
:100A500010B5072202600A4A93685B075B0F436088
:100A600093680F24240223408360926807231B03AA
:100A70001A40C260034800684007400F086010BD7C
:100A800000100240002002400648074900688968BB
:100A9000064A4904490F8900515CC906C90EC8407D
:100AA000704700001000002000100240343B000896
:100AB00010B5204CA068204A8006400F16D0A068D0
:100AC0008006410F501001290FD0A1688906490FF7
:100AD000022912D0A0688006400F042823D0A06805
:100AE0008006400F032821D0002010BD206801217E
:100AF0008004400F8140104612E0E1688B07E168F6
:100B00009B0F4906490F491C032B00D01046FFF7E5
:100B100029FBE1684904490E4843E168490F491C33
:100B2000FFF720FB10BD0120C00310BD7D20000297
:100B300010BD0000001002400024F400F8B50400CD
:100B40007ED020783827C007EF4D002846D0A8680F
:100B5000E96838408907890F102802D008280BD08F
:100B600001E0032908D001206268000482420AD112
:100B700029680143296015E0286880032ED5606844
:100B80000028DDD02AE0052301211B0489049A42B4
:100B90002A6802D10A432A60EAE782432A60286869
:100BA00088432860606800280CD0FFF72DFC0646BB
:100BB00004E0FFF729FC801B642873D828688003B1
:100BC000F7D50BE0FFF720FC064604E0FFF71CFC1E
:100BD000801B6428F1D828688003F7D42078800728
:100BE00069D5A868E96838408A070721920FC902C9
:100BF000102802D0002813D001E0022A10D0E068AB
:100C0000002846D02868884321690843286028685E
:100C1000FF21013108432860FFF7F6FB06462CE070
:100C20002A68520502D5E268002A89D06A687F23C3
:100C30001B029A4363691B021A436A60002800E0A2
:100C40008DE00ED128688843216908432860286810
:100C500001218004400F8140AC48FFF783FAAC4982
:100C60000860AC480068FFF7C7FC002877D122E095
:100C7000FFF7CAFB801B02289FD828684005F7D5DC
:100C800068687F2109028843616909020843686036
:100C900011E02968FF20013081432960FFF7B4FB90
:100CA000064605E098E0FFF7AFFB801B022884D8DA
:100CB00028684005F7D42078974E00072ED5A868FD
:100CC0008006400F03280AD0A0690028306A16D099
:100CD000012108433062FFF797FB07460BE0306ABB
:100CE00080071BD5A06900289FD017E0FFF78CFB79
:100CF000C01B022870D8306A8007F7D50EE0400884
:100D000040003062FFF780FB074604E0FFF77CFB02
:100D1000C01B022860D8306A8007F7D420784007CB
:100D20006CD5A86800278006400F042818D0E86B0F
:100D3000C00008D4E96B012000070143E963E96BB7
:100D400001400127009175480168C90519D401685F
:100D5000821511430160FFF757FB00900DE083E01F
:100D6000F06980074AD5A06800287DD046E0FFF7EB
:100D70004BFB0099401A02282ED868480068C0052D
:100D8000F5D5A168012910D004200529F16911D0F9
:100D900049084900F161F1698143F161A0680028C7
:100DA00016D0FFF731FB00900EE0F06901210843F7
:100DB000F061F3E70143F161F7E7FFF725FB0099E5
:100DC000411A574881426FD8F0698007F5D50EE087
:100DD000FFF71AFB009007E066E0FFF715FB0099AC
:100DE000411A4F4881425FD8F0698007F5D4002F3F
:100DF00004D0E86B012109078843E863E069002813
:100E00007FD0A9688906490F022953D001263606EA
:100E1000022828680DD0B0432860E8688008800068
:100E2000E860E8683F490840E860FFF7EDFA0446EB
:100E30003CE0B0432860FFF7E7FA074604E0FFF71D
:100E4000E3FAC01B02282FD828688001F7D4616A12
:100E5000206AA26A0843E16A120211430843216B27
:100E60000843616B084300E049E0E9682E4A1140FD
:100E70000843E860286830432860E86801210907D2
:100E80000843E860FFF7C0FA044604E0FFF7BCFA45
:100E9000001B022808D828688001F7D531E0FFF749
:100EA000B3FA001B022801D90320F8BD286880018D
:100EB000F5D426E00128F8D0E868226A8107890F76
:100EC00091421CD17021626A0140914217D17F2169
:100ED000A26A090201401202914210D11F21490465
:100EE000E26A014091420AD107214906226B014082
:100EF000914204D1400F616B4007884201D001202C
:100F0000F8BD0020F8BD0000001002400024F400ED
:100F10001000002008000020401002400070004037
:100F200088130000FFFFFEEE8C80C111FFB581B079
:100F300016460F46040005D025468035686800280F
:100F400003D007E0012005B0F0BD00202870204646
:100F500000F096FC24206860206801684908490078
:100F60000160204601F0E4F90128ECD0A06A0028D5
:100F700002D0204601F044F92068816801229203E2
:100F80001143816020688168520091433943816038
:100F9000049871050004084321680A68064B1A404A
:100FA00002430A6020680168012211430160204663
:100FB00001F08CF9C7E70000FFFF00FCF8B5040062
:100FC0000CD0606A002500280AD02561656126469C
:100FD0004036A562707F002808D00BE00120F8BDE4
:100FE0006168C81FFD38F2D0E561F0E7357720462B
:100FF00000F05CF802227277206801684023994370
:1010000001600723E1681B02994201D9002001E039
:10101000012000030F273F02B94202D0994200D0BD
:10102000A562FF236168053319402127A368BF0229
:101030003B40194323691340227D1943D207D20F45
:1010400011430123A2695B021A401143E26938236C
:101050001A401143226A80231A401143A26A9B015D
:101060001A40114322681160A1690422090C114041
:10107000626A10231A401143626B08231A4011431D
:101080000F23E2681B021A40114301221203104091
:101090000143206841602068C16952109143C161D9
:1010A0002566012070770020F8BD000010B586B0DD
:1010B000044614216846FFF7B4F8114920688842B5
:1010C0001BD11048026881140A430260006808407E
:1010D00005900C484038426B02210A434263406B42
:1010E0000191084005903820009000200290039064
:1010F000049069460448FFF7D3F806B010BD00001D
:1011000000300140401002400004005003490A68CA
:1011100003235B029A4302430A60704700000140C8
:10112000704770477047000070B5034620331A7F40
:10113000012A4BD001221A770325CA682D02AA433F
:101140008D6800682A430125AD02AA434D6800243A
:101150002A430125ED02AA430D682A4301252D03E8
:10116000AA430D692A4301256D03AA434D692A4309
:101170000125AD03AA430D6B2A430F252D04AA4375
:101180000D8B2D042A43124DA84204D101263607A7
:10119000B243CE693243A84214D10F252D05AA438C
:1011A0000D8D2D052A4301252D06AA430D6A2A43DC
:1011B00001256D06AA434D6AC96A2A4301256D07B8
:1011C000AA430A4342641C77002070BD022070BD10
:1011D000002C0140F0B5034620331A7F012A2BD0A2
:1011E00001221A7702225A7704686268A568134FB1
:1011F000BC4205D116460F22120596434A68324377
:101200007026B2430E68164366600068B84209D083
:1012100001229207904205D0094A904202D0094A21
:10122000904204D18022896895432943816001203E
:10123000587700201877F0BD0220F0BD002C014047
:10124000000400400040014070B5040005D0254670
:101250002035687F002802D006E0012070BD002004
:101260002877204600F016F802206877211D2068B4
:1012700000F0A4FD012240342272AA77EA7722709E
:101280006270A270E27022716271A271E2716A777B
:10129000002070BD08B500680549884207D105489F
:1012A0000268C1140A43026000680840009008BD4B
:1012B000002C014040100240014620314A7F012AA3
:1012C00001D00120704702224A770168CB680122D1
:1012D0001343CB6000680C49884208D091078842CC
:1012E00005D00A49884202D00949884207D181685D
:1012F000084B1940062905D0DB1F994202D001682E
:101300001143016000207047002C014000040040A0
:10131000004001400700010070B505460446203535
:10132000287F012817D001262E77022068772268AF
:1013300090682E4B1840FF231B02984390600A6868
:10134000502A32D00EDC202A4CD006DC002A49D0AC
:10135000102A3BD146E0022070BD302A42D0402AFC
:1013600034D137E0602A28D0702A12D0012000033F
:10137000121A2BD0824229D1CB684A68896820682A
:1013800000F066FD206881680122920311438160AC
:101390001CE0CB684A688968206800F059FD216824
:1013A000886877221043886010E0CA68496820681E
:1013B00000F0D2FE5021206806E0CA684968206823
:1013C00000F0DBFE6021206800F04EFD6E7700200B
:1013D000287770BDCA684968206800F0BDFE4021CA
:1013E0002068F1E711462068EEE7000088FFCEFF95
:1013F0007047000070B50446006801690025C943C4
:101400008907002915DBC168C943890711D4E91E82
:10141000016101202077206880698007204602D082
:10142000FFF7E6FF04E000F0CDF8204600F081F978
:10143000257720680169C943490717D4C168C943A2
:10144000490713D40421C943016102202077206891
:1014500080698005800F204602D0FFF7C9FF04E0B5
:1014600000F0B0F8204600F064F9257720680169A3
:10147000C943090716D4C168C943090712D4082112
:10148000C9430161042020772068C0698007204695
:1014900002D0FFF7ADFF04E000F094F8204600F022
:1014A00048F9257720680169C943C90617D4C1687E
:1014B000C943C90613D41021C9430161082020770C
:1014C0002068C0698005800F204602D0FFF790FF9A
:1014D00004E000F077F8204600F02BF9257720682B
:1014E0000169C943C90708D1C168C943C90704D103
:1014F000891E0161204600F01DF920680169C94379
:10150000090609D4C168C943090605D48021C94325
:1015100001612046FFF705FE20680169C943C9053E
:1015200008D4C168C943090604D4124901612046A0
:10153000FFF7F6FD20680169C943490609D4C1686F
:10154000C943490605D44021C9430161204600F042
:10155000FBF820680169C943890609D4C168C943F9
:10156000890605D42021C94301612046FFF7DAFD31
:1015700070BD0000FFFEFFFF10B586B004461421C9
:101580006846FEF74EFE0D492068884214D10C488B
:10159000416B012211434163406B022110400590D1
:1015A0001002009000200290039001910491052008
:1015B00069460007FEF774FE06B010BD002C01401E
:1015C000001002407047F8B5064604462036307FCA
:1015D0000D4601280CD00120082730770C2A44D072
:1015E00008DC002A0BD0042A19D0082A77D12CE075
:1015F0000220F8BD102A4ED0142A70D15BE020687A
:1016000000F03CFC20688169394381612068816970
:10161000042291438161206881692A6912E020686F
:1016200000F072FC206881690122D20211438161BD
:1016300020688269012189028A4382612068816968
:101640002A6912021143816149E0206800F09EFC82
:101650002068C1693943C1612068C169042291438E
:10166000C1612068C1692A6912E0206800F0D2FCDB
:101670002068C1690122D2021143C1612068C26998
:10168000012189028A43C2612068C1692A69120264
:101690001143C16123E0206800F0F6FC2068416D31
:1016A000394341652068426D04218A4342652068C0
:1016B000416D2A6911E0206800F018FD2068416D35
:1016C0000122D202114341652068416D52109143BD
:1016D00041652068416D2A6912021143416500206D
:1016E0003077F8BD70B5040005D025462035687FF9
:1016F000002802D006E0012070BD00202877204697
:1017000000F016F802206877211D206800F056FBD3
:10171000012240342272AA77EA7722706270A270A6
:10172000E27022716271A271E2716A77002070BD6D
:101730007047704710B500680249884201D1FEF732
:101740003FFF10BD00140040704710B501468031C6
:101750000A78012A15D001220A7024224A60026800
:1017600013681468640864001460012252079343EC
:101770000022426600680360202048600A7010461C
:1017800010BD022010BD70B5044605468034207897
:1017900001281AD001202070242060602868066883
:1017A00002685208520002602868826807235B06BC
:1017B0009A430A438260284600F0F2FC28680660DB
:1017C000202060600020207070BD022070BD70B5C8
:1017D0000446054680342078012819D00120207065
:1017E000242060602868066802685208520002607F
:1017F00028688268D200D2080A438260284600F036
:10180000CFFC28680660202060600020207070BD3A
:10181000022070BD70B5040005D02546803568688B
:10182000002802D006E0012070BD0020287020466C
:1018300000F026F824206860206801684908490003
:101840000160204600F074FD0128EDD0A06A002858
:1018500002D0204600F0D4FC206841680922D20260
:1018600091434160206881682A2291438160206809
:101870000168012211430160204600F027FD70BD80
:10188000F0B587B0044614216846FEF7CAFC364D11
:101890002668052000223549012402230007AE42B4
:1018A00011D1324D40352F685E0337432F602D68CC
:1018B000354005954D6B25434D63496B214005919E
:1018C0000321490212E02A4DAE4219D1CE6B012507
:1018D0006D042E43CE63CE6B2E4005964D6B254393
:1018E0004D63496BC907C90F05910C2102920494FD
:1018F0000193039200916946FEF7D2FC07B0F0BD58
:101900001C4F0425BE4215D1CC6B28040443CC6384
:10191000CC6B04400594486B18434863486B0292B3
:10192000184005901448009069460495019303926D
:101930001248E1E7124FBE42E0D1CF6B0126F60418
:101940003743CF63CF6B374005974E6B26434E63CB
:10195000496B0292C907C90F0591032104950193B0
:1019600003920091C7E700000038014000100240D8
:101970000044004000480040020C000000040050F9
:10198000004C0040FEE70000F0B587B01421684627
:10199000FEF747FC1B48426B20210A434263426B1F
:1019A0000A400592416B012529434163416B29405F
:1019B0000591426B02210A434263406B05260840B1
:1019C00036070590002210213046FEF717FD0E4F16
:1019D000002240213846FEF711FD1020002400901F
:1019E00002946946019503943046FEF759FC402065
:1019F000009002946946019503943846FEF750FC26
:101A000007B0F0BD001002400004005010B51348AC
:101A10001149016012494160002181600161416109
:101A200081610122C161C2600162FEF73DFD0028B3
:101A300001D072B6FEE700210848FEF7EBFC002853
:101A400001D072B6FEE700210448FEF708FD002829
:101A500001D072B6FEE710BD005400408C0000209B
:101A6000BC7D701010B511480F490160FF21053190
:101A7000416000210322816012020161C260416164
:101A8000C1610122016252024162826181620722C8
:101A9000C262016308214163FFF790FA002801D078
:101AA00072B6FEE710BD000000300140D8000020F3
:101AB00010B59CB0002419941A9417941894149497
:101AC00015941C210DA81694FEF7ABFB3421684633
:101AD000FEF7A7FB2D492E4812C004608460C46045
:101AE0002C49046141600838FFF7AEFB002801D0A3
:101AF00072B6FEE701200003179017A92448FFF7EC
:101B00000BFC002801D072B6FEE72148FFF7EAFD82
:101B1000002801D072B6FEE71494159414A91C484D
:101B20001694FFF757FB002801D072B6FEE760203D
:101B300012940E940D900F941094119400220DA9FC
:101B400013941348FFF73FFD002801D072B6FEE75B
:101B50000120009440030590019402940494000332
:101B6000039406940794099008940A940B94694688
:101B70000C940748FFF7D8FA002801D072B6FEE7A8
:101B80000348FFF7F9FC1CB010BD0000002C014019
:101B90003C010020FFFF000010B518481649016005
:101BA000E1214902416000218160C16001618161E0
:101BB000C16101620C22416242618162FFF72AFE2B
:101BC000002801D072B6FEE700210C48FFF7FFFDA8
:101BD000002801D072B6FEE700210848FFF7D3FDC8
:101BE000002801D072B6FEE70448FFF7AEFD0028DA
:101BF00001D072B6FEE710BD003801408801002018
:101C000010B5184816490160E121490241600021E0
:101C10008160C16001618161C16101620C22416228
:101C200042618162FFF7F6FD002801D072B6FEE73F
:101C300000210C48FFF7CBFD002801D072B6FEE76B
:101C400000210848FFF79FFD002801D072B6FEE78B
:101C50000448FFF77AFD002801D072B6FEE710BDF8
:101C6000004400401802002010B50E480C490160E5
:101C7000E1214902416000218160C160016181610F
:101C8000C16101620C22416242610B4681620A46D7
:101C9000FFF74CF9002801D072B6FEE710BD000036
:101CA00000480040A802002010B50D480B49016013
:101CB000E1214902416000218160C16001618161CF
:101CC000C16101620C22416242618162FFF7A2FDA3
:101CD000002801D072B6FEE710BD0000004C0040A5
:101CE00038030020FEE77047012000F0F3FCFBE71B
:101CF00010B50448006901F057FD012801D001F03A
:101D00001DFB10BD00E000E030B59FB038216846F3
:101D1000FEF787FA00241B941C941D9434210EA80E
:101D20001E94FEF77EFA01204002FEF7CFFC012050
:101D30000090000401900320089010200A904003B6
:101D400002250B90079500020C9000010D9009945C
:101D50006846FEF7F3FE002801D072B6FEE70720C2
:101D60001B901D9402211C951E941BA8FEF7C4FD18
:101D7000002801D072B6FEE7074818940E900F9421
:101D8000109412940EA8FEF7C7FC002801D072B67A
:101D9000FEE71FB030BD00002300200001200249F3
:101DA000C00688607047000000ED00E010B50248F2
:101DB000FFF720FB10BD0000C8030020F0B502684B
:101DC0001D4B0124A4071D4D984203D0A04201D011
:101DD000A84203D17026B2434E683243184E194FC1
:101DE00098420DD0A0420BD0A84209D0164CA04278
:101DF00006D0B04204D0B84202D0144CA04204D164
:101E000003242402A243CC6822438024A2434C69C9
:101E1000224302608A68C2620A688262984206D0DF
:101E2000B04204D0B84202D0084A904201D10969B8
:101E3000016301214161F0BD002C0140000400401C
:101E400000400140004401400020004000480140A3
:101E500030B58468FF252D021B021343AC430B43AE
:101E60002343836030BD00008268034B1A400A435D
:101E700007210A43826070478FFFCFFFF0B5026AE7
:101E8000520852000262056A43688269194C1B4E6F
:101E9000224092080C6892001443022295438A68FB
:101EA0002A43154DA84207D0B04205D0144FB8427E
:101EB00002D0144FB84206D10827BA43CF6817435F
:101EC000042297433A46A84207D0B04205D00C4DB1
:101ED000A84202D00B4DA84206D103252D02AB43E8
:101EE0004D691D438B692B4343608461496841639D
:101EF0000262F0BD8FFFFEFF002C01400040014058
:101F0000004401400048014070B5026A10239A4322
:101F10000262046A43688269174D2A4003252D0234
:101F2000AA430D682D021543202294438A681201AA
:101F30002243124CA04207D18024A243CC68402601
:101F400024012243B24308E00D4CA04205D00D4CC1
:101F5000A04202D00C4CA04208D10324A402A34307
:101F60004C69A4001C438B699B002343436085613B
:101F700049688163026270BDFF8FFFFE002C014043
:101F800000400140004401400048014070B5026A31
:101F9000FF2301339A430262046A4368C269184D01
:101FA0002A4092080D689200154301225202944380
:101FB0008A6812022243134CA04208D11446CA6810
:101FC000C614B443120222430415A24308E00E4C87
:101FD000A04205D00D4CA04202D00D4CA04208D129
:101FE00003242403A3434C6924011C438B691B0174
:101FF00023434360C5614968C163026270BD00004C
:102000008FFFFEFF002C01400040014000440140D2
:102010000048014030B5026A01231B039A43026263
:10202000046A4368C269134D2A4003252D02AA435E
:102030000D682D0215430122520394438A6812034E
:1020400022430D4CA04208D00C4CA04205D00C4CB1
:10205000A04202D00B4CA04205D10124A403A3430B
:102060004C69A40123434360C5614968016402626D
:1020700030BD0000FF8FFFFE002C014000400140FA
:10208000004401400048014070B5026A0126360450
:10209000B2430262046A4268436D0F4D2B400D68E3
:1020A0001D4373009C430B891B0423430B4CA0422C
:1020B00008D00B4CA04205D00A4CA04202D00A4CDA
:1020C000A04203D14C69B2432402224342604565D9
:1020D00049688165036270BD8FFFFEFF002C0140DF
:1020E00000400140004401400048014030B5026A10
:1020F00001231B059A430262046A4268436D114D35
:102100002B400D682D021D4301235B059C430B8969
:102110001B0523430C4CA04208D00C4CA04205D018
:102120000B4CA04202D00B4CA04205D10124A404C8
:10213000A2434C69A4022243426045654968C165D7
:10214000036230BDFF8FFFFE002C014000400140C4
:10215000004401400048014030B5036A046A640845
:10216000640004628469F025AC43120122430A240E
:10217000A3430B438261036230BD30B5036A102470
:10218000A34303628469036A0F252D031203AC4342
:102190002243A024A343090119438261016230BD97
:1021A000F0B513A106C985B00192009112A206CA2A
:1021B000039202910446416E4034002915D0006814
:1021C0008168806809014D0F400F02AE315C6F4697
:1021D000385CC000FDF7C6FF6085785D715DC000AA
:1021E000FDF7C0FF208505B0F0BD01206085F9E74F
:1021F00001010103070100000804020408010101B4
:1022000010B5018DC90707D001684A6801235B0436
:102210009A43C36A1A434A60018D890707D501684A
:102220004A6801231B049A43036B1A434A60018DD9
:10223000490707D501684A6801239B049A43436B09
:102240001A434A60018D090707D501684A680123CE
:10225000DB039A43836B1A434A60018DC90607D595
:102260000268916801231B039943C36B1943916072
:10227000018D890607D501688A6801235B039A43AB
:10228000036C1A438A60018D490612D503685A68A7
:1022900001210905446C8A4322435A60426C8A42F8
:1022A00007D10268516803235B059943836C194386
:1022B0005160018D090607D501684A680123DB04D6
:1022C000C06C9A4302434A6010BD0000FEB505464B
:1022D000002680350446EE60FEF796F801902068EF
:1022E0000068124F000709D5012100970022490517
:1022F0002046019B00F03AF900280DD120680068C3
:1023000040070BD501210097002289052046019B3B
:1023100000F02CF9002801D00320FEBD20206860C9
:10232000A860E6662E700020FEBD0000FFFFFF01E2
:10233000F8B504462269A168E5691143626900267F
:102340002A431143626E00680A437C4B01687C4D4E
:102350002940114301602068416803221203914320
:10236000E268114341602168A069994201D0226A64
:1023700010438A68734D2A4002438A602068C16A0C
:10238000626A090909011143C1626F4922686F48F5
:102390008A420AD140698007800F1AD001283DD0B7
:1023A000022839D0032827D124E069498A420AD17A
:1023B00040690C2108400CD004282FD008282BD0CD
:1023C0000C2819D116E063498A4202D062498A4238
:1023D00001D1002111E09A420ED14169032080020F
:1023E00001400AD001208002091A17D0091A13D01F
:1023F000814201D1082100E010210120574D584FA2
:10240000C0039A423BD100290AD0022911D00429E5
:1024100009D008297ED10BE00221EEE70421ECE788
:10242000FEF732FB01E0FEF743FB050001D17AE045
:102430000546606A4000395A28460091FDF792FE31
:10244000676879007918814269D83903814266D377
:10245000002328461946009AFDF79AFE020E09024B
:102460000302780811431818002251413A4600230C
:10247000FDF78EFE03210902411A3A4A4DE0E26956
:10248000824228D1002906D0022907D0042907D08A
:10249000082944D108E0FEF7F7FA03E0284603E0F4
:1024A000FEF706FB00283ED0616A4900795AFDF725
:1024B00059FE616840004A088018FDF753FE80B25B
:1024C00002462949103A8A4229D8491C014000078E
:1024D000400F084325E0002906D0022907D004292F
:1024E00007D008291BD108E0FEF7CEFA03E0284602
:1024F00003E0FEF7DDFA002815D0616A4900795A39
:10250000FDF730FE61684A088018FDF72BFE80B2A7
:10251000014600E003E0144A1039914201D9012636
:1025200001E02168C86020460121403041850185D5
:102530000020206760673046F8BD00000080004042
:10254000F369FFCFFFF4FF11003801404010024053
:102550000044004000480040004C00400024F400CB
:10256000DC3A0008FFFC0F00EFFF0000FFB581B070
:1025700005460F46044680350A9E38E0701C36D06A
:10258000FDF742FF0499401AB04221D8002E1FD017
:102590002068016849072AD5C069C043000526D4D0
:1025A00001202168C002086220680168FF22A13270
:1025B00091430160206881684908490081602020BA
:1025C0006860A860E86000202870032005B0F0BDB6
:1025D00020680168FF22A132914301602068816870
:1025E00049084900816020206860A860EBE7206806
:1025F000C1693846884305D0002103988142BDD087
:102600000020E3E70121F8E730B47446641E257822
:10261000641CAB4200D21D46635D5B00E31830BC16
:10262000184700008307FF22DB0E9A408907090E36
:102630009940002808DB830809489B001B1818688C
:1026400090430843186070470007000F083883085C
:1026500004489B001B18D86990430843D861704711
:1026600000E400E000ED00E002E008C8121F08C12D
:10267000002AFAD170477047002001E001C1121F03
:10268000002AFBD170470000FDF7A2FFFFF73CFBDB
:10269000FFF77AF9FFF7BAF9FFF7E4F9FFF708FA5D
:1026A000FFF77AFAFFF7ACFAFFF7DEFAFFF7FCFA6A
:1026B00000F020F8044A0021044800F04DF80449D5
:1026C000086000F02BF8FEE7B83A0008E91C0008A3
:1026D0000000002010B5EFF30581002902D0052489
:1026E000E44304E00024002801D000F057FD204618
:1026F00010BD0000EFF30580002802D00520C04384
:10270000704705480168002902D00020C043704787
:1027100001210160002070476400002010B5EFF334
:102720000580002802D00520C04310BD084801687C
:10273000012902D00020C04310BD0649CA69120217
:10274000120ACA610221016000F078FD002010BD6C
:102750006400002000ED00E0F0B58C4685B000215B
:102760000391EFF3058100293FD100283DD080255A
:1027700018210024002A2CD01368002B00D01C46FE
:102780009369002B03D019465B1E382B02D21379B4
:10279000DB0702D0002005B0F0BD5669002E00D046
:1027A000B5089768D368002F0ED05C2B1DD3126933
:1027B000002A1AD0002E18D06E4686C663462A46D6
:1027C000214600F0CEFF0FE0002B0ED11269002A47
:1027D0000BD103AA01920091AAB26346214600F0F0
:1027E00097FF012801D0002003900398D3E7000051
:1027F000F8B5134C0F46E66805462068001D00F04A
:10280000DFFB681C07D1002F05D021680D48091D8A
:1028100000F026FCF8BD2068751945602168B542B6
:1028200004D2A06B091D00F003FCF8BD606B091D0C
:1028300000F0FEFBA06A8542F7D2A562F8BD000059
:102840001400002004090020F8B5054600F014FC2F
:10285000294CA068401CA0602068284F002803D0A5
:102860006069002825D02AE02560A068012826D1CB
:10287000002614207043C01900F0CCFB761C382EC3
:10288000F7D31F4800F0C6FB1D48143000F0C2FB10
:102890001B48283000F0BEFB19483C3000F0BAFB62
:1028A0001748503000F0B6FB154860631430A06341
:1028B00005E02068E96AC06A884200D82560606A3D
:1028C000401C60626864E86A2169884200D920611E
:1028D00014214843C019291D00F0C2FB00F0D8FBA9
:1028E0006069002806D02068E96AC06A884201D27F
:1028F00000F014FCF8BD0000140000205404002077
:10290000B408002038B500F0B7FB114C206800284F
:102910001AD1104800F07EFB0E48143000F07AFB0C
:102920000C48E06014300B4B20610020F03B1A464D
:102930000090503210210A2000F012FD2060002883
:1029400002D005A100F0F6FB00F0A2FB38BD0000AC
:1029500050000020080A0020546D72510000000051
:1029600010B5026C0C46002A0CD0C1688B18C360ED
:1029700081688B4201D2194601E00168C16020469E
:10298000FDF736FC10BDF8B5856B174604460026EA
:10299000026C002A11D0002F19D0E068FDF728FC46
:1029A000E168206C091AE1602268914202D2A168B4
:1029B000081AE060022F17D019E02068002816D10D
:1029C000A06800F065FF06460020A0600FE0606888
:1029D000FDF70EFC216C606840186060A1688842B9
:1029E00005D32068606002E0002D00D06D1E6D1CD4
:1029F000A5633046F8BD10B504464030407E00283F
:102A000005D0012806D0022807D072B6FEE7206B59
:102A100000F04CFB204600F049FB10BD03210E489E
:102A20008902420705D0C01DC0080B4AC000821AA7
:102A3000891A0A4A0023411809C20839C908C9007D
:102A4000203A11604B600B600B1A0AC093600120A2
:102A5000C007536050617047E810002080000020DC
:102A60000F4E104C104F11E000F006FBF068C568E7
:102A7000281D00F0A5FAA068401EA0606068401EF6
:102A8000606000F005FB2846FFF7B5FF606800288E
:102A9000EAD138680128F9D900F040FBF6E70000D8
:102AA000F0080020140000205404002070B5049C9D
:102AB0001D46002909D022602164E06301212046DF
:102AC00000F06EFC4034257370BD2460F4E7FFB560
:102AD00081B097000C9C0D460A9EA5223946206BBA
:102AE000FDF798FB206B3F1FC019C008C000009085
:102AF000400701D072B6FEE7274640370021002D7F
:102B00000CD0002023182A5C20331A752A5C002A76
:102B100002D0401C1028F5D3F97001E03420015593
:102B2000382E00D33726E662E6640D46201D216567
:102B300000F07BFA2046183000F077FA2461382044
:102B4000801B6462A06165653D76049A01990098D6
:102B500000F026FA20600B98002800D0046005B031
:102B6000F0BD000030B5114900E011460A6882420C
:102B7000FBD34B685C18844203D140681818486046
:102B8000084643681C18944209D1084C183C246834
:102B9000A24209D052689A1842600A68126802601C
:102BA000814200D0086030BD0460F9E78000002059
:102BB00070B5002441600B4D0061914206D8D11AD6
:102BC0008269914206D2011D286907E09A4203D228
:102BD000994201D3012403E0011DE86800F028FABE
:102BE000204670BD5000002010B5044600F044FAA5
:102BF000A06B002804D0002400F04AFA204610BD43
:102C00000124F9E7F0B587B00125374E63E001985C
:102C1000002806DA029A0499039890470198002840
:102C200059DB039C6069002802D0201D00F0C8F920
:102C300005A800F0BFF8024601980300FFF7E4FC86
:102C40000A060606282E3F0606282E4B2746203762
:102C5000387A284338720298A16903464118204601
:102C6000FFF7A6FF002836D0216A20468847387A29
:102C7000400730D5002000900298A1690023421837
:102C80001946204600F0EEFE002824D172B6FEE779
:102C90002034207A4008400020721CE0204620307A
:102CA000017A294301720298A061002805D0811899
:102CB00013462046FFF77CFF0DE072B6FEE7204684
:102CC0002030017A8A0703D4204600F0EFF902E0B1
:102CD000490849000172002201A9306800F069FC2E
:102CE000002894D107B0F0BD50000020FEB50E467C
:102CF000044600F0D7FA01A800F05CF805460198F8
:102D0000002802D000F02AFEFEBD214F002E10D078
:102D100038690068002838D00026611B32463868C0
:102D200000F01AFA00F01AFE0028EDD100F0F6F9D2
:102D3000FEBDAC42F1D800F011FEF8682E46C06826
:102D4000C568281D00F03CF929462031087A420761
:102D500014D5A8692346011932462846FFF728FFF3
:102D600000280ED000200346014600902246284647
:102D700000F078FE002804D172B6FEE7400840005B
:102D80000872296A28468847FEBD0126C5E700006B
:102D9000500000200648416B0968002905D0416BAE
:102DA000C968C9684968816270470021C943FAE768
:102DB0001400002070B5054600F006FD064E0446DE
:102DC000B068844203D200F009F8012000E000203E
:102DD00028602046B46070BD50000020F8B5174D43
:102DE00021E0C068C4680668201D00F0E9F8216A87
:102DF000204688472820005D400714D5A069801927
:102E0000B04206D924616060211DE86800F010F925
:102E100009E000200346014600903246204600F0BB
:102E200021FE002807D0E86801680029D9D1296966
:102E3000E9602861F8BD72B6FEE70000500000208E
:102E400003480068401C72B600D0FEE7FEE70000B1
:102E500088000020074CE0680168002907D0C0689E
:102E600000210068FFF742FFFFF7CCFEF3E70121E6
:102E70000020F7E750000020F8B5044600F0FCF809
:102E8000254640350526AE57274624370BE0606AB5
:102E900000280AD0384600F02FFD002801D000F0AD
:102EA0009DF9761E76B2002EF1DC0027FF436F718C
:102EB00000F0EEF800F0E0F80426AE57204610309F
:102EC00000900BE0206900280AD0009800F014FD63
:102ED000002801D000F082F9761E76B2002EF1DCD7
:102EE0002F7100F0D5F8F8BDF8B50546002700F0C1
:102EF000D9F92A4E3068002801D1FFF78FFD70699B
:102F0000054242D1002D40D00835680708D0680737
:102F1000400F0821081A4519680701D072B6FEE76C
:102F2000002D32D0706885422FD81C4818300146D9
:102F30000C6801E020460C466168A94202D2216873
:102F40000029F7D131688C421FD0076821680160E1
:102F500060680837411B102908D96019420701D061
:102F600072B6FEE741606560FFF7FCFD616870685E
:102F7000401A7060B268904200D2B060706901433C
:102F8000002003C4F068401CF06000F0E7FC780704
:102F900001D072B6FEE73846F8BD00006800002098
:102FA00010B50124031F24061C601B1F1960191F84
:102FB000024B0B60143940380A6010BD412E0008E6
:102FC0004368826801699A60836842685A604A6807
:102FD000824201D182684A60002202610868401E74
:102FE0000860086870470000034B036018465C30B7
:102FF0000860802010607047300A0020044B036096
:1030000018465C300860FF200130106070470000F7
:103010008C0C00200146083100224160D243C1607F
:1030200082600161002101607047002101617047E9
:1030300030B50B685A1C02D00246083202E0026921
:1030400004E02246546825689D42FAD953684B60D3
:1030500099608A60516008610168491C016030BD57
:1030600042684A6093688B60936859609160086118
:103070000168491C0160704772B604480168491C28
:103080000160BFF34F8FBFF36F8F70478800002040
:1030900005490868002804D0401E086000D162B6C7
:1030A000704772B6FEE700008800002070B5002867
:1030B0001DD004460E4D083C60686969084201D184
:1030C00072B6FEE72268002A01D072B6FEE7884396
:1030D000606000F0E7F86068696840186860204642
:1030E000FFF740FD2869401C286100F037FC70BDE7
:1030F0006800002010B5074C00202061A061064840
:103100007D21C9000068FDF72DF8401E6061072091
:10311000206110BD00E000E0100000200120044903
:1031200000074860BFF34F8FBFF36F8F70470000F9
:1031300000ED00E010B5074B0022D4001C59002C14
:1031400003D0521C082AF8D310BDD2009950D118D0
:10315000486010BD1404002070B515460E460446A4
:10316000FFF78AFF20464030042282560021521C7D
:1031700000D1017105228256521C00D14171FFF726
:1031800087FFA06B002805D120462A46314624300F
:1031900000F03CF82046FFF76FFE70BD10B502004E
:1031A0000FD00948006B002801D072B6FEE700F08E
:1031B00079F800211046FFF71BFB00F0CFFB002839
:1031C00001D1FFF7ABFF10BD1400002002490A6ACD
:1031D0000260C96841607047140000200149012065
:1031E000C86170471400002010B50C46002809D0B3
:1031F000054909681831FFF71BFF01212046FFF739
:10320000F7FA10BD72B6FEE71400002070B5144640
:103210000D4600280DD0084909681831FFF720FF36
:10322000002C01D00025ED4321462846FFF7E0FAA7
:1032300070BD72B6FEE700001400002030B587B004
:103240000024039405AA04A903A80494FFF7CCFE64
:103250000499039800940191029000230DA10F4856
:10326000059A00F07EFA0E4D0028E86210D000F0BA
:10327000CDFB012803D0401C0AD172B6FEE772B61E
:103280000020C043A86201206861EC6000F03EF8B5
:1032900007B030BD49444C4500000000612A0008D9
:1032A000140000200248016B491C016370470000B4
:1032B0001400002010B51348016B002902D0012131
:1032C000C16110BD0021C16101690F4A02E00029FE
:1032D00015D0491E14234B43D358002BF7D0142389
:1032E0004B439A18536814465B6808345360A342F2
:1032F00001D15B685360DA680260016110BD72B68B
:10330000FEE70000140000205404002010B5094816
:10331000016AFF22120411430162016A1202114381
:103320000162FFF7E7FE044900200860FCF7D0FEC9
:10333000002010BD00ED00E08800002010B5FCF773
:10334000DBFE044600F046FA002803D001200349C2
:10335000000748602046FCF7D3FE10BD00ED00E0FA
:10336000F8B5069D002806D0002B06D0002A08D00C
:10337000002904D009E072B6FEE772B6FEE772B625
:10338000FEE7002901D072B6FEE750241C46012654
:1033900040339E712B460094FFF788FB2046F8BD12
:1033A00070B50D46040025D0FFF766FE216CE06B7A
:1033B000484321684118A1600021A1632168616030
:1033C000E06B216C401E484321684118E1600021F8
:1033D000C94320464030017141713038002D0BD077
:1033E000FFF718FE20462430FFF714FEFFF750FECB
:1033F000012070BD72B6FEE721690029F6D000F009
:103400007BFA0028F2D0FFF789FEEFE7FFB5002630
:1034100083B01D46040003D00498002802D006E0C3
:1034200072B6FEE7206C002801D072B6FEE7022DCE
:1034300004D1E06B012801D072B6FEE700F0B4F9C8
:103440000027002804D10598002801D072B6FEE7B5
:10345000FFF712FEA06BE16B884207D3022D05D067
:103460000598002817D0002E18D01BE02A462046C9
:103470000499FFF788FA616A002903D020462430B6
:1034800000F03AFA002801D0FFF748FEFFF700FEEF
:10349000012007B0F0BDFFF7FBFD22E06846FFF713
:1034A00095FE0126FFF7F4FDFFF7FCFEFFF7E4FDB4
:1034B0002046403004214156491C00D107710521A6
:1034C0004156491C00D14771FFF7E2FD05A9684646
:1034D00000F0F0F8002806D02046FFF7CDFC00F001
:1034E0003DFA0020D5E7FFF7C7FDA06BE16B8842EE
:1034F00010D1FFF7CDFD204610300599FFF774FE7F
:103500002046FFF7B9FC00F029FA0028A0D1FFF708
:1035100005FE9DE7FFF7BCFD2046FFF7ADFC00F080
:103520001DFA95E7FFB581B01E46040003D002984E
:10353000002802D006E072B6FEE7206C002801D019
:1035400072B6FEE7022E04D1E06B012801D072B6FC
:10355000FEE7FCF7D1FD0090A06BE16B884208D339
:10356000022E06D000240098FCF7CAFD204605B0C4
:10357000F0BD20464030052545570746A06B324632
:1035800020460299FFF7FFF9681C03D06D1C7D717E
:103590000124E8E7606A0028FAD02046243000F0D1
:1035A000ABF90028F4D003980028F1D00121016084
:1035B000EEE7F7B5002582B0040003D00398002899
:1035C00002D006E072B6FEE7206C002801D072B689
:1035D000FEE700F0E9F80026002804D1049800284E
:1035E00001D072B6FEE7FFF747FDA76B002F15D09D
:1035F00020460399FFF7B4F97F1EA76320690028CE
:1036000007D02046103000F077F9002801D0FFF7EE
:1036100085FDFFF73DFD012005B0F0BD04980028B1
:1036200002D0002D03D006E0FFF732FD27E0684608
:10363000FFF7CCFD0125FFF72BFDFFF733FEFFF76A
:103640001BFD2046403004214156491C00D1067123
:1036500005214156491C00D14671FFF719FD04A907
:10366000684600F027F8002820460AD0FFF704FC3F
:1036700000F074F92046FFF7B7FA0028B3D0002015
:10368000CAE7FFF7B1FA00280ED02046243004998B
:10369000FFF7AAFD2046FFF7EFFB00F05FF90028D7
:1036A000A1D1FFF73BFD9EE72046FFF7E5FB00F0C9
:1036B00055F998E7F8B50C46050012D0002C12D049
:1036C000FFF7DAFC114BDA686E682068911B471C23
:1036D0000BD02F681B6A9F420CD096420AD8012457
:1036E00004E072B6FEE772B6FEE70024FFF7D0FCF6
:1036F0002046F8BD884205D9401A20602846FFF7C9
:1037000065FDF2E700202060E9E7000014000020DA
:10371000FFB585B0164690000F9FFFF7E5FB05004B
:103720001CD05C20FFF7E0FB040014D000205921DE
:10373000256308550E990091039001970294324633
:10374000089B06990598FFF7C2F92046FFF77CF819
:10375000012009B0F0BD2846FFF7A8FC0020C043B7
:10376000F7E7F0B585B007460B9D0C9C0A98002D35
:1037700015D0002C15D05C26256302255926355519
:10378000002504AE00900196039502943846FFF799
:103790009EF92046FFF758F8049805B0F0BD72B6C0
:1037A000FEE772B6FEE7000006484169002904D032
:1037B000006B002803D000207047012070470220D2
:1037C00070470000140000200148C06870470000E6
:1037D00014000020F8B52C4C0027206B002804D0E2
:1037E000A069401CA0613846F8BDE668761CE6601A
:1037F0000ED1606B0068002801D072B6FEE7606BE6
:10380000A16B6163A063206A401C2062FFF7C2FACB
:10381000A06A86420AD3606B0068002814D0606BEF
:10382000C068C5686868864211D2A0622068142109
:10383000C06A484315490858012800D90127E069A2
:103840000028D0D00127CEE70020C043EDE7281D97
:10385000FFF7B6FBA86A002803D028461830FFF708
:10386000AFFBE86A2169884200D9206114214843EE
:1038700006494018291DFFF7F3FBE86A2168C96A69
:103880008842C8D30127C6E7140000205404002052
:1038900070B500210446002828D0154D28688442C0
:1038A00001D072B6FEE7206D002808D0401E2065CA
:1038B000E36CE26A9A4219D0002802D016E072B690
:1038C000FEE7201DFFF77CFBE06C3821E062081A60
:1038D000A061E06A2969884200D92861142148431F
:1038E00004494018211DFFF7BBFB0121084670BDAC
:1038F000140000205404002070B5C068C468002C77
:103900000BD0204618300646FFF75AFB104D286BA7
:10391000002804D031460F480EE072B6FEE7201DA5
:10392000FFF74EFBE06A2969884200D9286114211B
:10393000484309494018211DFFF792FBE06A2968B6
:10394000C96A884202D90120E86170BD002070BDBB
:1039500014000020DC08002054040020F8B5284C96
:103960000025206B2E46002808D0FFF785FB206B32
:10397000401E2063206B002802D03CE072B6FEE7B8
:10398000A168204F00291CD135E0F868C568284699
:103990001830FFF715FB281DFFF712FBE86A2169B5
:1039A000884200D920611421484317494018291D35
:1039B000FFF756FBE86A2168C96A884201D30120F3
:1039C000E06138680028E0D1002D01D0FFF7E2F96E
:1039D000A569002D09D00127FFF7FCFE002800D0C3
:1039E000E7616D1EF8D10020A061E069002802D0D7
:1039F0000126FFF793FBFFF74BFB3046F8BD0000B5
:103A000014000020DC0800205404002010B586B00B
:103A1000FEF778FF0F4C2068002819D00020039093
:103A2000049005AA04A903A8FFF7E8FA0220039A64
:103A30000499009002920191002307A10848059A79
:103A4000FFF78FFE6060002802D0012006B010BD95
:103A500072B6FEE750000020546D7220537663006A
:103A6000552E0008F0B51D4685B0034600200A9E7D
:103A7000002B13D00F4C2768002F0DD068460EC0C6
:103A8000062910DAFFF790FE022809D000231A4613
:103A900069462068FFF7BAFC05B0F0BD72B6FEE7D4
:103AA00000233246F4E700232A4669463846FFF7EA
:103AB00039FDF1E750000020543B000800000000F1
:103AC00000000000000000000000000000020000F4
:103AD00018000000000000000000000001000200CB
:103AE0000400060008000A000C001000200040003E
:103AF0008000000100000000000000000000000045
:103B000000000000000000000000000000000000B5
:103B1000000000000100000002000000030000009F
:103B2000040000000600000007000000080000007C
:103B3000090000000000000000000000000000007C
:103B4000000000000100000002000000030000006F
:103B50000400000064656661756C745461736B00E9
:103B6000803B0008000000208C0000006826000850
:103B70000C3C00088C0000205C2000007826000827
:103B80000000000001000000040000000000000030
:103B90000024F4000000000000000000000000000D
:103BA0000000000000000000000000000000000015
:103BB0000000000000000000000000000000000005
:103BC00000000000000000000000000000000000F5
:103BD00000000000000000000000000000000000E5
:103BE00000000000000000000000000000000000D5
:103BF00000000000000000000000000000000000C5
:0C3C00000000000000000000AAAAAAAA10
:04000005080000BD32
:00000001FF
