:100C110075E10675E24075A40175A50A75A6007512
:100C2100A70075F1FF75F2FF75F3FF75F4FF75D439
:100C3100FF75D50175D600759F00759D02759B00E6
:100C4100759E00759C02759A0075B10075A140757D
:100C5100A20675F80975D10075BB0075BA0075BC9F
:100C6100F875E80075BE0075BD0075C60075C50054
:100C710075C4FF75C3FF75980075870075C143750D
:100C8100C20075C00075D90075F90075FA0075D8F4
:100C91000075DA0075FB0075FC0075DB0075E90075
:100CA10075EA0075DC0075EB0075EC0075DD00750B
:100CB100ED0075EE0075DE0075FD0075FE00758EA8
:100CC10004758AFF758B00758CE8758D00758952E6
:100CD10075885075CAE075CBB175CCE075CDB1752D
:100CE100C800759200759300759400759500759113
:0E0CF1000075EF0075A88075B80075E401224B
:04003E001480010029
:0E15E9000615000000000000042E332E300016
:1000860053D9BF7B007A007900C003C002C0017B50
:10009600007A00790090000712115A7B007A0079E5
:1000A6000090000A12115A90003EE493FF90000D52
:1000B600EFF090003FE493FF90000EEFF0900040C9
:1000C600E493FE740193FF90000FEEF0A3EFF0D0DF
:1000D60001D002D0037D007C007F007E001206C5A1
:1000E600120C1143A902C2A07520007521007512D9
:1000F60000750E00751000750F00750900750A0071
:10010600750D00750800750C0078327600087600CB
:10011600751300751100750B001215D07514007853
:10012600347600E50B60107B007A00792E7D047C26
:1001360000120B13750B00E5106041751EFF751F4D
:10014600FF7BFF7DFF7FFF1214AB751EFF751FFF40
:100156007BFF7DFF7FFF1214AB751EFF751FFF7BB4
:10016600FF7DFF7FFF1214AB751EFF751FFE7BFF21
:100176007DFF7FFF1214ABD2A0751000E51260124E
:1001860085181E85191FAB17AD16AF151214AB7562
:100196001200E50E6015AF151214047B007A007983
:1001A600357D047C00120B13750E00E50F602D855E
:1001B6001520851621AD21AF20120FD27B007A00C3
:1001C6007935AF21EF3395E0FEEF7802C333CE33B6
:1001D600CED8F9FDAC06120B13750F00E50D607352
:1001E600851520C28030F9FDC2FF8520A330FFFDB2
:1001F6002092FDC2FF75A30030FFFDC2FF75A3FE6E
:1002060030FFFD7838A6A3C2FF75A3FE30FFFD7848
:1002160037A6A3C2FF75A3FE30FFFD7836A6A3C29C
:10022600FF75A3FE30FFFD7835A6A3900017740175
:10023600F0900017E4F0D2809000177401F090005F
:1002460017E4F07B007A0079357D047C00120B13ED
:10025600750D00E50870030203D98516218519225C
:10026600AF2274107E00A807088005C333CE33CEB4
:10027600D8F9FF7875A60608A607C28030F9FDC230
:10028600FF8521A330FFFD752300C3E52364809419
:1002960085503B2092FDC2FF75A30030FFFDC2FFD3
:1002A60075A3FE30FFFD85A320C2FF75A3FE30FFB8
:1002B600FD85A320C2FF75A3FE30FFFD85A320C2E6
:1002C600FF75A3FE30FFFD85A320052380BC78774C
:1002D60076000876007875E6FE08E6FF7877E6FC95
:1002E60008E6FDC3ED9FEE6480F8EC648098400359
:1002F60002037DE511600302037D752300C3E52338
:10030600648094BC5057E51170532092FDC2FF756E
:10031600A30030FFFDC2FF75A3FE30FFFDAF2374BF
:10032600382FF8A6A3C2FF75A3FE30FFFDAF2374D6
:10033600372FF8A6A3C2FF75A3FE30FFFDAF2374C7
:10034600362FF8A6A3C2FF75A3FE30FFFDAF2374B8
:10035600352FF8A6A374042523F52380A07B007A05
:100366000079357D3C7C00120B137878740F26F6E5
:1003760018E436F60202DB2092FDC2FF75A3FF30B9
:10038600FFFDC2FF75A3FE30FFFD85A320C2FF75EA
:10039600A3FE30FFFD85A320C2FF75A3FE30FFFD3F
:1003A60085A320C2FF75A3FE30FFFD85A320900024
:1003B600177401F0900017E4F0D2809000177401D2
:1003C600F0900017E4F0750800E51160067511005D
:1003D600751001E5096056D2CA43C18043E601782B
:1003E6002D7602782C760075160078347601D2C503
:1003F6007834E6FFC3EF6480948340F4782D760961
:10040600782C760178347600D2C57834E6FFC3EFCF
:100416006480948A40F47B007A0079357D097C00FB
:10042600120B137F0A7E00120003750900E50A60AD
:100436002CD2CA43C18043E601782D7603782C7608
:100446000078347601D2C57834E6FFC3EF64809431
:100456008440F47F507E00120003750A00E50C709C
:1004660003020129851520C28030F9FDC2FF8520CF
:10047600A330FFFD2092FD9000177401F090001745
:10048600E4F0D2809000177401F0900017E4F07544
:050496000C0002012929
:01049B00223E
:03003B00020F3081
:100F3000C0E0C083C082C0D075D000C000C006C071
:100F400007E5C054F0FFEF1211630F9A800F66C0DF
:100F50000F57E000000FBF782CE6FFEF44A0F5C26A
:100F6000C2C5C2C0805D30C12A782DE6FF7834E664
:100F7000FEC3EF6480F8EE6480985015782CE6FF8D
:100F8000EF70107834E6FF74152FF8E6FF8FC280FB
:100F900002D2C4C2C078340680297834E6FF7434A3
:100FA0002FF8A6C27834067834E6FFD3EF64809435
:100FB000894006C2C1D2C48002D2C1C2C08004D25C
:100FC000A0C2C0D007D006D000D0D0D082D083D06D
:020FD000E0320D
:100003008E288F29D2ADD2CA7832E6FE08E6FFC326
:10001300EF9529E5286480F8EE64809840EAC2AD44
:08002300783276000876002215
:03002B000215B605
:1015B600C0E0C0D075D000C000783306E6187001D0
:0A15C60006C2CFD000D0D0D0E03232
:03008300020876FA
:10087600C0E0C0F0C083C082C0D075D000C000C048
:0D08860001C002C003C004C005C006C007C9
:100893001200758F2AE52A30E103751301E52A203A
:1008A300E2030209CE7B007A0079157D06120E7CE5
:1008B300E51512116309A30109A30209A30309A3FF
:1008C3000509A30709A80809A80909A80A09A80B83
:1008D30009A80C09A80D09A80F09A31109A3120956
:1008E300A31509A81909A81A09A81D09A32109A371
:1008F3002209A32509A82909A82A09A82D09A33192
:1009030009A33209A33509A83909A83A09A83D0959
:10091300B24909B24A09B24D09B78009C18109C177
:100923008209C18509C18609B78809C18909C18AB4
:1009330009C18D09C18E09B79009C19109C19209F5
:10094300C19509C19609B79809C19909C19A09C105
:100953009D09C19E09B7A009C1A109C1A209C1A5E9
:1009630009C1A609B7A809C1A909C1AA09C1AD0945
:10097300C1AE09B7B009C1B109C1B209C1B509C155
:10098300B609B7B809C1B909C1BA09C1BD09C1BE20
:1009930009BCCC09C6EE09CBEF09ADFF000009CEB7
:1009A3007512018026750E018021751001801C755A
:1009B3000F018017750D018012750801800D750CEC
:1009C3000180087511018003750B01E52A30E703E7
:0B09D3001214F7E52A30E603120C11A5
:1009DE00D007D006D005D004D003D002D001D0006D
:0B09EE00D0D0D082D083D0F0D0E03217
:040FD2008F248D25B6
:100FD60030F9FDC280C2FF8524A330FFFD752600CF
:100FE600752700AF25EF3395E0FEC3E5279FEE6436
:100FF60080F8E526648098505AC2FF75A3FE30FF3C
:10100600FDAF27EF25E025E02438F8A6A3C2FF753B
:10101600A3FE30FFFDAF27EF25E025E02437F8A635
:10102600A3C2FF75A3FE30FFFDAF27EF25E025E045
:101036002436F8A6A3C2FF75A3FE30FFFDAF27EF47
:1010460025E025E02435F8A6A30527E52770020547
:101056002680909000177401F0900017E4F0D2807B
:0B1066009000177401F0900017E4F0F8
:01107100225C
:101404008F2B30F9FDC280C2FF852BA330FFFDC2B4
:10141400FF75A3FE30FFFD7838A6A3C2FF75A3FEB7
:1014240030FFFD7837A6A3C2FF75A3FE30FFFD7819
:1014340036A6A3C2FF75A3FE30FFFD7835A6A390A0
:1014440000177401F0900017E4F0D2809000177434
:0814540001F0900017E4F02202
:1014AB008F1B8D1C8B1D30F9FDC280C2FF851BA3CA
:1014BB0030FFFDC2FF851FA330FFFDC2FF851EA3BA
:1014CB0030FFFDC2FF851DA330FFFDC2FF851CA3AE
:1014DB0030FFFD9000177401F0900017E4F0D280FC
:0C14EB009000177401F0900017E4F0224C
:1014F700C2F8C2CA53C17FC29C75F10075F200756C
:10150700F30075F40012120675F1FF75F2FF75F31B
:0E151700FF75F401D2F8D2CA43C180D29C22E3
:1013A8001201100100000040C410020000000102F8
:1013B8000301090220000101008032090400000233
:1013C80000000000070502024000000705820240F5
:1013D8000000040309040E034300590047004E00AF
:1013E80041004C001003550053004200200041000A
:0C13F80050004900040331000100000017
:1006C500900000EEF0A3EFF0900004EBF0A3EAF049
:1006D500A3E9F043B280E4F5B943B98043B9C090CA
:1006E5000791F000900791E004F0E0B496F5E5B9C4
:1006F50030E5FB53A90FE59620E7FB759601759745
:1007050008E59620E7FB75960775970FE59620E7B0
:10071500FB75960975970EE59620E7FB75960B75A3
:10072500970775D7E0E59620E7FB75960F759780D7
:10073500E4900793F0900792F0900794F090078665
:10074500F0900791F0900791E0FF9013A893FE7445
:10075500402FF582E43407F583EEF0900791E0042D
:10076500F0E0B412E0E4900791F0900791E0FF907B
:1007750013BA93FE74522FF582E43407F583EEF035
:10078500900791E004F0E0B420E0900000E0FEA3C3
:10079500E04E6008E0900748F0EEA3F0ED4C6008ED
:1007A50090074AEDF0ECA3F090077274FFF0A37484
:1007B50013F0A374DAF0A374FFF0A37413F0A37419
:1007C500DEF0A374FFF0A37413F0A374ECF0A3742C
:1007D500FFF0A37413F0A374FCF0900004E0FBA3F6
:1007E500E0FAA3E04A4B6012900004A3A3E0F9905D
:1007F5000775EBF0A3EAF0A3E9F0900007E0FBA38F
:10080500E0FAA3E04A4B6012900007A3A3E0F99039
:100815000778EBF0A3EAF0A3E9F090000AE0FBA368
:10082500E0FAA3E04A4B601290000AA3A3E0F99016
:10083500077BEBF0A3EAF0A3E9F090000DE060047C
:1008450090075AF090000EE06004900759F0900070
:100855000FE0FEA3E04E6008E090074CF0EEA3F039
:1008650043E602D2AFE59620E7FB75960175970141
:010875002260
:030043000209F9B6
:1009F900C0E0C0F0C083C082C0D075D000C000C0C4
:100A090001C002C003C004C005C006C007E59620A6
:100A1900E7FB759686E59620E7FB900799E597F041
:100A2900E030E30BE59620E7FB75960B7597079089
:100A39000799E030E203121525900799E030E01498
:100A4900900786E0FF64046004EFB40607900792FC
:100A5900E04480F0E59620E7FB759682E59620E76D
:100A6900FB900799E597F0E030E00312049C9007AA
:100A790099E030E22AE59620E7FB75960E75970214
:100A8900E59620E7FB759691E59620E7FB90079A96
:100A9900E597F0E054037007900792E04402F0E50F
:100AA9009620E7FB759684E59620E7FB900799E584
:100AB90097F0E030E229E59620E7FB75960E7597E9
:100AC90002E59620E7FB759694E59620E7FB9007EB
:100AD9009AE597F0E030E007900792E04404F0903F
:100AE9000794E030E009900792E06003121577D08F
:100AF90007D006D005D004D003D002D001D000D051
:0A0B0900D0D082D083D0F0D0E032CB
:101525009007867402F0E59620E7FB75960175979E
:1015350001E490078EF0A37403F0A3F0A3F0E49008
:091545000793F090079204F022D4
:10049C00E59620E7FB75960EE4F597E59620E7FBCD
:1004AC00759691E59620E7FB90079AE597F0E0307A
:1004BC00E20FE59620E7FB759611E4F59790078E11
:1004CC00F090079AE030E410E59620E7FB75961162
:1004DC00759780E490078EF090078EE0600302051C
:1004EC00C390079AE020E0030205C375962043965B
:1004FC00C0E4900791F0E59620E7FB900791E0248B
:10050C007EF582E43407F583E597F0900791E004DB
:10051C00F0E0B407E1E59620E7FBE4F5969007914F
:10052C00E0247EF582E43407F583E597F0900781AB
:10053C00E0FE900780E07C002400FFEC3E900795E5
:10054C00F0A3EFF0900785E0FE900784E02400FF15
:10055C00EC3E900797F0A3EFF090077FE012116349
:10056C00058E00059301059802059D0305A205055E
:10057C00A70605AC0805B10905B60A05BB0B0000BA
:10058C0005C01211898030121274802B120CFF805E
:10059C00261212DD802112154E801C120DC28017FE
:1005AC0012145C8012121345800D12004680081242
:1005BC00002E800312159990078EE06401600302EF
:1005CC0006C490079A7402F0C390078DE094409093
:1005DC00078CE094004061E59620E7FB759620E4DB
:1005EC00900791F0900791E0FFC394405022900740
:1005FC0087E0FBA3E0FAA3E0F98F82758300121168
:10060C0017F597E59620E7FB900791E004F080D46E
:10061C00900788E475F04012114490078DE024C0D7
:10062C00F090078CE034FFF090078BE02440F090C2
:10063C00078AE03400F08052E59620E7FB7596209F
:10064C00E4900791F0900791E0FFD390078DE09F25
:10065C0090078CE094004026900787E0FBA3E0FA1B
:10066C00A3E0F9900791E0F582758300121117F55C
:10067C0097E59620E7FB900791E004F080C7900780
:10068C009AE04408F0E490078EF0900797E0FEA300
:10069C00E0FF90078AE0B50611A3E0B5070C9007C0
:1006AC009AE04408F0E490078EF0E59620E7FB759D
:0906BC00961190079AE0F59722CF
:10159900E59620E7FB75960EE4F597E59620E7FBBF
:0D15A90075961175972090078E7404F0223E
:1011890090077EE0247F60071460082402704A807B
:101199002F802D90078FE0B40309900782E0B402F5
:1011A90002800E900790E0B40316900782E0B482A3
:1011B9000F90078774FFF0A37414F0A37400800DD7
:1011C90090078774FFF0A37414F0A37402F09007DA
:1011D9008CE4F0A37402F0800312159990078EE055
:1011E90064046018E59620E7FB75961175974090A1
:0D11F900078E7401F0E490078AF0A3F02245
:10127400900780E07041900782E0B4021DE596205B
:10128400E7FB75960E759702E59620E7FB759614B5
:10129400759780E490078FF08020E59620E7FB7532
:1012A400960E759702E59620E7FB759611759740A3
:1012B400E4900790F08003121599E59620E7FB75FA
:1012C400960EE4F59790078EE06404600BE5962093
:0912D400E7FB75961175974022A5
:100CFF00900796E030E076900794E030E00854FEDD
:100D0F00F04402F08007900794E054FDF0E5962040
:100D1F00E7FB75960E759702E59620E7FB7596949F
:100D2F00E59620E7FB90079AE597F0E030E02DE598
:100D3F009620E7FB759614759710E59620E7FB75DF
:100D4F009694E59620E7FB90079AE597F0E030E060
:100D5F000BE59620E7FB759614759710900792E0B8
:100D6F004408F0900794E030E1034401F0900795B8
:100D7F00A3E0FD30E10D9007867406F0900792E036
:100D8F004410F0ED30E20D9007867404F090079256
:100D9F00E04420F0E59620E7FB75960EE4F597907A
:100DAF00078EE06404600BE59620E7FB75961175DE
:030DBF0097402238
:1012DD00900780E07040900782E0B4021BE59620F5
:1012ED00E7FB75960E759702E59620E7FB7596144C
:1012FD0075972090078F8019E59620E7FB75960E60
:10130D00759702E59620E7FB759611759710900776
:10131D00907403F08003121599E59620E7FB7596FE
:10132D000EE4F59790078EE06404600BE59620E7D8
:08133D00FB7596117597402223
:10154E00E59620E7FBE4F596900780E0FFF597EF30
:10155E0090078660057403F080037402F0E5962010
:09156E00E7FB7596117597402208
:100DC200900781E024FE601B14603B24027069904E
:100DD20007877401F0A37407F0A37440F0900740F2
:100DE200E0804A9007877401F0A37407F0A374525D
:100DF200F0900755E0FE900754E07C002400FFECE1
:100E02003E90078C802C900780E075F003A424723A
:100E1200F582E43407F583E0FBA3E0FAA3E0F9905E
:100E22000787EBF0A3EAF0A3E9F01210FEFF9007A8
:100E32008CE4F0A3EFF0800312159990078CE0FE8A
:100E4200A3E0FF900797E0FCA3E0FDC39FEC9E5058
:100E52000890078CECF0A3EDF090078EE06404603C
:100E620018E59620E7FB75961175974090078E74EA
:0A0E720001F0E490078AF0A3F022DB
:10145C00900786E0FFB40414A374FFF0A37414F097
:10146C00A37400F090078CE4F0A304F0EFB403161F
:10147C0090078774FFF0A37414F0A37402F0900724
:10148C008CE4F0A304F0E59620E7FB7596117597B4
:0F149C004090078E7401F0E490078AF0A3F022CD
:10134500900780E0D394004042900792E04440F03B
:101355009007867404F0E490078FF0A3F0E59620DB
:10136500E7FB75960E759702E59620E7FB759612D5
:10137500759784E59620E7FB759615759780E59634
:1013850020E7FB75960EE4F597800C9007867403AD
:10139500F090078FF0A3F0E59620E7FB75961175A1
:0313A5009740224C
:1000460090078774FFF0A37414F0A37402F090076E
:100056008CE4F0A304F0E59620E7FB7596117597FE
:0F0066004090078E7401F0E490078AF0A3F02217
:0C002E00E59620E7FB75961175974022BF
:1012060053D7BCE5A95403900791F043A91053A9FD
:10121600FDE4F5B943B22000F5B943B980000000FA
:1012260000000000000000000000000000000000B8
:1012360000000000000000000000000000000000A8
:101246000000000000000000000000000000000098
:101256000000000043B9C0E5B930E5FB900791E016
:0E126600F5A953A90FE5D754FC4440F5D72253
:0E007500900792E0CFE4F022900792E0FF2285
:100E7C00900011EBF0A3EAF0A3E9F0900786E0B440
:100E8C000606EDD3944040037F0022E59620E7FB55
:100E9C0075960E759702E59620E7FB759694E59688
:100EAC0020E7FB90079AE597F0E020E003020F2D76
:100EBC00E59620E7FB759696E59620E7FB90079361
:100ECC00E597F0E0FFEDC39F5006AE05AF0680003E
:100EDC00900793EFF0E59620E7FB7596E290079369
:100EEC00E06025FEEB600630E70F7F0022E59620E0
:100EFC00E7FBA79709DEF6800F89828A83E59620A7
:100F0C00E7FBE597F0A3DEF5E59620E7FBE4F59625
:100F1C00E59620E7FB759614E4F597900793E0FFB0
:040F2C00227F0022FE
:100B1300900014EBF0A3EAF0A3E9F0900786E0B4A9
:100B2300060DED4C6009D3ED9400EC94104004E401
:100B3300FEFF22E4FFFE90079AF089828A83C08336
:100B4300C08290079AE030E003020C0CE59620E7A0
:100B5300FB75960E759702E59620E7FB759691E572
:100B63009620E7FB90079AE597F0E030E020E596C2
:100B730020E7FB75960EE4F597E59620E7FB75965F
:100B830091E59620E7FB90079AE597F080B4C3EDD3
:100B93009440EC9400401874402FFFE43EFE74C070
:100BA3002DFD74FF3CFCE490079AF078408011ED32
:100BB3002FFFEC3EFE90079A7401F0A805E4FCFDBC
:100BC300E59620E7FB759622D082D083EB60113047
:100BD300E71AE59620E7FBE493F597A3D8F480178B
:100BE300E59620E7FB879709D8F6800BE59620E783
:100BF300FBE0F597A3D8F5C083C082E59620E7FB19
:0E0C0300759611759701020B45D082D08322A1
:1015D000900794E04401F0900792E0600BE59620BC
:0915E000E7FB75960B75970F22CD
:10157700D007D007D007D006D005D004D003D002BB
:10158700D001D000D0D0D082D083D0F0D0E00200FC
:021597008322AD
:0300000002107279
:0C107200787FE4F6D8FD7581780210B993
:1010FE00BB010689828A83E0225002E722BBFE02F0
:09110E00E32289828A83E4932222
:10111700BB010CE58229F582E5833AF583E022508D
:1011270006E92582F8E622BBFE06E92582F8E222D7
:0D113700E58229F582E5833AF583E49322F1
:10114400C5F0F8A3E028F0C5F0F8E5821582700236
:061154001583E038F022D3
:09115A00EBF0A3EAF0A3E9F02296
:10116300D083D082F8E4937012740193700DA3A31B
:1011730093F8740193F5828883E47374029368602F
:06118300EFA3A3A380DF2F
:10107E00020086E493A3F8E493A34003F68001F202
:10108E0008DFF48029E493A3F85407240CC8C33373
:10109E00C4540F4420C8834004F456800146F6DF42
:1010AE00E4800B01020408102040809015E9E47ED4
:1010BE00019360BCA3FF543F30E509541FFEE49337
:1010CE00A360010ECF54C025E060A840B8E493A3FE
:1010DE00FAE493A3F8E493A3C8C582C8CAC583CA29
:1010EE00F0A3C8C582C8CAC583CADFE9DEE780BEE1
:0115F70000F3
:00000001FF
